{
  "contractName": "Patient",
  "abi": [
    {
      "inputs": [],
      "name": "getName",
      "outputs": [
        {
          "internalType": "string",
          "name": "",
          "type": "string"
        }
      ],
      "stateMutability": "view",
      "type": "function",
      "constant": true
    },
    {
      "inputs": [
        {
          "internalType": "string",
          "name": "newName",
          "type": "string"
        }
      ],
      "name": "setName",
      "outputs": [],
      "stateMutability": "nonpayable",
      "type": "function"
    },
    {
      "inputs": [
        {
          "internalType": "address",
          "name": "_userAddress",
          "type": "address"
        },
        {
          "internalType": "string",
          "name": "email",
          "type": "string"
        },
        {
          "internalType": "string",
          "name": "firstname",
          "type": "string"
        },
        {
          "internalType": "string",
          "name": "lastname",
          "type": "string"
        }
      ],
      "name": "addPatient",
      "outputs": [],
      "stateMutability": "nonpayable",
      "type": "function"
    },
    {
      "inputs": [
        {
          "internalType": "address",
          "name": "_userAddress",
          "type": "address"
        }
      ],
      "name": "getPatient",
      "outputs": [
        {
          "internalType": "string",
          "name": "email",
          "type": "string"
        },
        {
          "internalType": "string",
          "name": "firstname",
          "type": "string"
        },
        {
          "internalType": "string",
          "name": "lastname",
          "type": "string"
        }
      ],
      "stateMutability": "view",
      "type": "function",
      "constant": true
    },
    {
      "inputs": [
        {
          "internalType": "address",
          "name": "_userAddress",
          "type": "address"
        }
      ],
      "name": "getEmail",
      "outputs": [
        {
          "internalType": "string",
          "name": "",
          "type": "string"
        }
      ],
      "stateMutability": "view",
      "type": "function",
      "constant": true
    }
  ],
  "bytecode": "0x60806040526040518060400160405280600381526020017f49726500000000000000000000000000000000000000000000000000000000008152506003908051906020019061004f929190610062565b5034801561005c57600080fd5b50610165565b82805461006e90610134565b90600052602060002090601f01602090048101928261009057600085556100d7565b82601f106100a957805160ff19168380011785556100d7565b828001600101855582156100d7579182015b828111156100d65782518255916020019190600101906100bb565b5b5090506100e491906100e8565b5090565b5b808211156101015760008160009055506001016100e9565b5090565b7f4e487b7100000000000000000000000000000000000000000000000000000000600052602260045260246000fd5b6000600282049050600182168061014c57607f821691505b60208210810361015f5761015e610105565b5b50919050565b610aaa806101746000396000f3fe608060405234801561001057600080fd5b50600436106100575760003560e01c806317d7de7c1461005c5780632c76361f1461007a5780634fa7353c14610096578063b5368e20146100c6578063c47f0027146100f8575b600080fd5b610064610114565b60405161007191906106ce565b60405180910390f35b610094600480360381019061008f9190610897565b6101a6565b005b6100b060048036038101906100ab9190610952565b610260565b6040516100bd91906106ce565b60405180910390f35b6100e060048036038101906100db9190610952565b610372565b6040516100ef9392919061097f565b60405180910390f35b610112600480360381019061010d91906109cb565b610578565b005b60606003805461012390610a43565b80601f016020809104026020016040519081016040528092919081815260200182805461014f90610a43565b801561019c5780601f106101715761010080835404028352916020019161019c565b820191906000526020600020905b81548152906001019060200180831161017f57829003601f168201915b5050505050905090565b604051806060016040528084815260200183815260200182815250600460008673ffffffffffffffffffffffffffffffffffffffff1673ffffffffffffffffffffffffffffffffffffffff168152602001908152602001600020600082015181600001908051906020019061021c929190610592565b506020820151816001019080519060200190610239929190610592565b506040820151816002019080519060200190610256929190610592565b5090505050505050565b60608173ffffffffffffffffffffffffffffffffffffffff163373ffffffffffffffffffffffffffffffffffffffff161461029a57600080fd5b6000600460008473ffffffffffffffffffffffffffffffffffffffff1673ffffffffffffffffffffffffffffffffffffffff16815260200190815260200160002090508060000180546102ec90610a43565b80601f016020809104026020016040519081016040528092919081815260200182805461031890610a43565b80156103655780601f1061033a57610100808354040283529160200191610365565b820191906000526020600020905b81548152906001019060200180831161034857829003601f168201915b5050505050915050919050565b60608060606000600460008673ffffffffffffffffffffffffffffffffffffffff1673ffffffffffffffffffffffffffffffffffffffff16815260200190815260200160002090508060000181600101826002018280546103d290610a43565b80601f01602080910402602001604051908101604052809291908181526020018280546103fe90610a43565b801561044b5780601f106104205761010080835404028352916020019161044b565b820191906000526020600020905b81548152906001019060200180831161042e57829003601f168201915b5050505050925081805461045e90610a43565b80601f016020809104026020016040519081016040528092919081815260200182805461048a90610a43565b80156104d75780601f106104ac576101008083540402835291602001916104d7565b820191906000526020600020905b8154815290600101906020018083116104ba57829003601f168201915b505050505091508080546104ea90610a43565b80601f016020809104026020016040519081016040528092919081815260200182805461051690610a43565b80156105635780601f1061053857610100808354040283529160200191610563565b820191906000526020600020905b81548152906001019060200180831161054657829003601f168201915b50505050509050935093509350509193909250565b806003908051906020019061058e929190610592565b5050565b82805461059e90610a43565b90600052602060002090601f0160209004810192826105c05760008555610607565b82601f106105d957805160ff1916838001178555610607565b82800160010185558215610607579182015b828111156106065782518255916020019190600101906105eb565b5b5090506106149190610618565b5090565b5b80821115610631576000816000905550600101610619565b5090565b600081519050919050565b600082825260208201905092915050565b60005b8381101561066f578082015181840152602081019050610654565b8381111561067e576000848401525b50505050565b6000601f19601f8301169050919050565b60006106a082610635565b6106aa8185610640565b93506106ba818560208601610651565b6106c381610684565b840191505092915050565b600060208201905081810360008301526106e88184610695565b905092915050565b6000604051905090565b600080fd5b600080fd5b600073ffffffffffffffffffffffffffffffffffffffff82169050919050565b600061072f82610704565b9050919050565b61073f81610724565b811461074a57600080fd5b50565b60008135905061075c81610736565b92915050565b600080fd5b600080fd5b7f4e487b7100000000000000000000000000000000000000000000000000000000600052604160045260246000fd5b6107a482610684565b810181811067ffffffffffffffff821117156107c3576107c261076c565b5b80604052505050565b60006107d66106f0565b90506107e2828261079b565b919050565b600067ffffffffffffffff8211156108025761080161076c565b5b61080b82610684565b9050602081019050919050565b82818337600083830152505050565b600061083a610835846107e7565b6107cc565b90508281526020810184848401111561085657610855610767565b5b610861848285610818565b509392505050565b600082601f83011261087e5761087d610762565b5b813561088e848260208601610827565b91505092915050565b600080600080608085870312156108b1576108b06106fa565b5b60006108bf8782880161074d565b945050602085013567ffffffffffffffff8111156108e0576108df6106ff565b5b6108ec87828801610869565b935050604085013567ffffffffffffffff81111561090d5761090c6106ff565b5b61091987828801610869565b925050606085013567ffffffffffffffff81111561093a576109396106ff565b5b61094687828801610869565b91505092959194509250565b600060208284031215610968576109676106fa565b5b60006109768482850161074d565b91505092915050565b600060608201905081810360008301526109998186610695565b905081810360208301526109ad8185610695565b905081810360408301526109c18184610695565b9050949350505050565b6000602082840312156109e1576109e06106fa565b5b600082013567ffffffffffffffff8111156109ff576109fe6106ff565b5b610a0b84828501610869565b91505092915050565b7f4e487b7100000000000000000000000000000000000000000000000000000000600052602260045260246000fd5b60006002820490506001821680610a5b57607f821691505b602082108103610a6e57610a6d610a14565b5b5091905056fea2646970667358221220a292ff68aaa2fe2b5ac6392e9e8208e1c99f9c9456c2e8dff6fb2b3eb0773ef764736f6c634300080d0033",
  "immutableReferences": {},
  "source": "// SPDX-License-Identifier: MIT\r\npragma solidity ^0.8.13; \r\n\r\ncontract Patient {\r\n\r\n  address[] private addresses;\r\n  bytes16[] private usernames;\r\n  bytes[] private ipfsHashes;\r\n  string private name = \"Ire\";\r\n  struct PatientHealthStruct {\r\n    bytes32 bloodType;\r\n    uint age;\r\n  }\r\n\r\n  struct PatientStruct {\r\n    string email;\r\n    string firstname;\r\n    string lastname;\r\n  }\r\n\r\n  mapping(address => PatientStruct) private patients;\r\n  mapping(address => uint) private addressToIndex;\r\n  mapping(bytes16 => uint) private usernameToIndex;\r\n\r\n\r\n  function getName() public view returns (string memory) {\r\n      return name;\r\n  }\r\n\r\n  function setName(string memory newName) public  {\r\n      name = newName;\r\n  }\r\n\r\n\r\n  function addPatient(address _userAddress, string memory email,string memory firstname, string memory lastname ) public {\r\n    // PatientStruct storage patient = patients[_userAddress];\r\n    patients[_userAddress] = PatientStruct({\r\n      email: email,\r\n      firstname: firstname,\r\n      lastname: lastname\r\n    });\r\n  }\r\n\r\n  function getPatient(address _userAddress) public view returns (string memory email,string memory firstname,string memory lastname) {\r\n    // require(msg.sender == _userAddress);\r\n    PatientStruct storage patient = patients[_userAddress];\r\n    // email = patient.email;\r\n    // firstname = patient.firstname;\r\n    // lastname = patient.lastname;\r\n    return (\r\n      patient.email,\r\n      patient.firstname,\r\n      patient.lastname\r\n    );\r\n  }\r\n\r\n  function getEmail(address _userAddress) public view returns (string memory) {\r\n    require(msg.sender == _userAddress);\r\n    PatientStruct storage patient = patients[_userAddress];\r\n    return patient.email;\r\n  }\r\n\r\n\r\n\r\n\r\n\r\n}",
  "sourcePath": "C:\\Users\\ironp\\hackathon\\health-de\\health-de-contract\\contracts\\CreatUser.sol",
  "compiler": {
    "name": "solc",
    "version": "0.8.13+commit.abaa5c0e.Emscripten.clang"
  },
  "schemaVersion": "3.4.5",
  "updatedAt": "2022-03-17T14:03:49.540Z",
  "networkType": "ethereum",
  "devdoc": {
    "kind": "dev",
    "methods": {},
    "version": 1
  },
  "userdoc": {
    "kind": "user",
    "methods": {},
    "version": 1
  }
}